:100000000C9434000C9449000C9449000C94490061
:100010000C9449000C9449000C9449000C9449003C
:100020000C9449000C9449000C9449000C9449002C
:100030000C9449000C9449000C9449000C9449001C
:100040000C9449000C9449000C9449000C9449000C
:100050000C9449000C9449000C9449000C944900FC
:100060000C9449000C94490011241FBECFEFD8E036
:10007000DEBFCDBF11E0A0E0B1E0ECE5F4E002C0EE
:1000800005900D92A633B107D9F70E94AD010C94EB
:100090002C020C9400001092C50087E68093C400E7
:1000A00088E08093C10086E08093C200089590911B
:1000B000C00095FFFCCF8093C6000895CF93DF93D7
:1000C000EC018991882319F00E945700FACFDF9143
:1000D000CF910895EF92FF921F93CF93DF93CDB707
:1000E000DEB727970FB6F894DEBF0FBECDBF7C01F9
:1000F00097FF06C08DE20E945700F194E194F10849
:1001000010E02AE030E041E0410FE1E0F0E0EC0FE8
:10011000FD1FE10FF11DC701B9010E940402805DBE
:1001200080837B01672B11F0142FEDCF1F3F59F017
:10013000E1E0F0E0EC0FFD1FE10FF11D80810E9476
:1001400057001150F3CF27960FB6F894DEBF0FBEBD
:10015000CDBFDF91CF911F91FF90EF900895109246
:10016000B90088E48093B800089584EA8093BC00C5
:100170008091BC0087FFFCCF08958093BB0084E88A
:100180008093BC008091BC0087FFFCCF089584E879
:100190008093BC008091BC0087FFFCCF8091BB00A6
:1001A0000895CF93C82F0E94B50080ED0E94BD0036
:1001B0008C2F0E94BD000E94B50081ED0E94BD0001
:1001C0000E94C700C82F0E94C70094E99093BC000A
:1001D0002C2F30E0322F2227A901482BCA01CF91C2
:1001E00008950E94B50080ED0E94BD008BE60E943C
:1001F000BD0080E00E94BD0084E98093BC000895AA
:10020000529A5A980895529808950E9400018FE7D3
:1002100097E00197F1F700C000000E940301E7E1B9
:10022000F1E03197F1F700C0000089B1E7E6F6E0B0
:100230003197F1F700C0000082FB882780F991E038
:1002400089270895CF93C82F0E940001CC2359F02D
:1002500080E28A95F1F70E9403018FEF90E0019709
:10026000F1F700C00BC08FEE90E00197F1F700C0EE
:1002700000000E94030195E39A95F1F70000CF91E9
:1002800008950E94000180E18A95F1F70E94030120
:10029000E0E4EA95F1F789B1E7ECF0E03197F1F7A6
:1002A00000C0000082FB882780F90895CF93DF9378
:1002B000D82FC8E08D2F81700E942201D695C150A1
:1002C000C9F7DF91CF910895EF92FF921F93CF93DB
:1002D000DF93C0E0D0E010E0EE24E394F12C0E9424
:1002E0004101882339F0C7010C2E01C0880F0A9400
:1002F000EAF7182B2196C830D10589F7812FDF91B5
:10030000CF911F91FF90EF900895CF930E94050128
:10031000811103C08FEF9FE71EC08CEC0E94560135
:1003200084E40E9456010E9441018823E1F30E9467
:100330000501882379F38CEC0E9456018EEB0E9414
:1003400056010E946401C82F0E9464012C2F30E0E6
:10035000A901582BCA01CF9108950E944B000E9419
:10036000AF000E94F1002FEF87EA91E62150804014
:100370009040E1F700C0000080E091E00E945E0044
:100380000E9485016C018BE30E94D1007C018DE30A
:100390000E94D1008C018FE30E94D100EC018EE11C
:1003A00091E00E945E00C601D7FC0F9624E095956F
:1003B00087952A95E1F70E946A0081E291E00E9408
:1003C0005E0084E291E00E945E00C7010E946A0024
:1003D00088E291E00E945E00C8010E946A008DE2FE
:1003E00091E00E945E00CE010E946A0082E391E0EB
:1003F0000E945E002FEF87EA91E6215080409040F6
:10040000E1F700C00000BCCF97FB072E16F4009464
:1004100007D077FD09D00E94180207FC05D03EF4F2
:10042000909581959F4F0895709561957F4F0895A0
:10043000AA1BBB1B51E107C0AA1FBB1FA617B7070A
:1004400010F0A61BB70B881F991F5A95A9F7809526
:0C0450009095BC01CD010895F894FFCFF9
:10045C00534D41525420434F4C4C4152207C20551B
:10046C0053422D54544C207C204156520A00543D8A
:10047C000043200041583D002041593D0020415A85
:06048C003D000D0A000016
:00000001FF
